{
  "abi": [
    {
      "inputs": [],
      "stateMutability": "nonpayable",
      "type": "constructor"
    },
    {
      "anonymous": false,
      "inputs": [
        {
          "indexed": true,
          "internalType": "address",
          "name": "owner",
          "type": "address"
        },
        {
          "indexed": true,
          "internalType": "address",
          "name": "approved",
          "type": "address"
        },
        {
          "indexed": true,
          "internalType": "uint256",
          "name": "tokenId",
          "type": "uint256"
        }
      ],
      "name": "Approval",
      "type": "event"
    },
    {
      "anonymous": false,
      "inputs": [
        {
          "indexed": true,
          "internalType": "address",
          "name": "owner",
          "type": "address"
        },
        {
          "indexed": true,
          "internalType": "address",
          "name": "operator",
          "type": "address"
        },
        {
          "indexed": false,
          "internalType": "bool",
          "name": "approved",
          "type": "bool"
        }
      ],
      "name": "ApprovalForAll",
      "type": "event"
    },
    {
      "anonymous": false,
      "inputs": [
        {
          "indexed": false,
          "internalType": "uint256",
          "name": "_fromTokenId",
          "type": "uint256"
        },
        {
          "indexed": false,
          "internalType": "uint256",
          "name": "_toTokenId",
          "type": "uint256"
        }
      ],
      "name": "BatchMetadataUpdate",
      "type": "event"
    },
    {
      "anonymous": false,
      "inputs": [
        {
          "indexed": false,
          "internalType": "uint256",
          "name": "_tokenId",
          "type": "uint256"
        }
      ],
      "name": "MetadataUpdate",
      "type": "event"
    },
    {
      "anonymous": false,
      "inputs": [
        {
          "indexed": true,
          "internalType": "address",
          "name": "previousOwner",
          "type": "address"
        },
        {
          "indexed": true,
          "internalType": "address",
          "name": "newOwner",
          "type": "address"
        }
      ],
      "name": "OwnershipTransferred",
      "type": "event"
    },
    {
      "anonymous": false,
      "inputs": [
        {
          "indexed": true,
          "internalType": "address",
          "name": "from",
          "type": "address"
        },
        {
          "indexed": true,
          "internalType": "address",
          "name": "to",
          "type": "address"
        },
        {
          "indexed": true,
          "internalType": "uint256",
          "name": "tokenId",
          "type": "uint256"
        }
      ],
      "name": "Transfer",
      "type": "event"
    },
    {
      "inputs": [
        {
          "internalType": "address",
          "name": "to",
          "type": "address"
        },
        {
          "internalType": "uint256",
          "name": "tokenId",
          "type": "uint256"
        }
      ],
      "name": "approve",
      "outputs": [],
      "stateMutability": "nonpayable",
      "type": "function"
    },
    {
      "inputs": [
        {
          "internalType": "address",
          "name": "owner",
          "type": "address"
        }
      ],
      "name": "balanceOf",
      "outputs": [
        {
          "internalType": "uint256",
          "name": "",
          "type": "uint256"
        }
      ],
      "stateMutability": "view",
      "type": "function"
    },
    {
      "inputs": [
        {
          "internalType": "string",
          "name": "_name",
          "type": "string"
        },
        {
          "internalType": "uint256",
          "name": "_minWorkoutDuration",
          "type": "uint256"
        },
        {
          "internalType": "uint256",
          "name": "_minStakeAmount",
          "type": "uint256"
        },
        {
          "internalType": "uint256",
          "name": "_questDifficulty",
          "type": "uint256"
        },
        {
          "internalType": "uint256",
          "name": "_maxQuestDuration",
          "type": "uint256"
        }
      ],
      "name": "createQuest",
      "outputs": [],
      "stateMutability": "nonpayable",
      "type": "function"
    },
    {
      "inputs": [
        {
          "internalType": "uint256",
          "name": "_challengeId",
          "type": "uint256"
        }
      ],
      "name": "failQuest",
      "outputs": [],
      "stateMutability": "payable",
      "type": "function"
    },
    {
      "inputs": [
        {
          "internalType": "uint256",
          "name": "tokenId",
          "type": "uint256"
        }
      ],
      "name": "getApproved",
      "outputs": [
        {
          "internalType": "address",
          "name": "",
          "type": "address"
        }
      ],
      "stateMutability": "view",
      "type": "function"
    },
    {
      "inputs": [],
      "name": "getQuestChallenges",
      "outputs": [
        {
          "components": [
            {
              "internalType": "uint256",
              "name": "challengeId",
              "type": "uint256"
            },
            {
              "internalType": "uint256",
              "name": "questTokenId",
              "type": "uint256"
            },
            {
              "internalType": "address",
              "name": "submitter",
              "type": "address"
            },
            {
              "internalType": "uint256",
              "name": "workoutDuration",
              "type": "uint256"
            },
            {
              "internalType": "uint256",
              "name": "stakeAmount",
              "type": "uint256"
            },
            {
              "internalType": "uint256",
              "name": "startTime",
              "type": "uint256"
            },
            {
              "internalType": "bool",
              "name": "completed",
              "type": "bool"
            }
          ],
          "internalType": "struct QuestManager.QuestChallenges[]",
          "name": "",
          "type": "tuple[]"
        }
      ],
      "stateMutability": "view",
      "type": "function"
    },
    {
      "inputs": [],
      "name": "getQuests",
      "outputs": [
        {
          "components": [
            {
              "internalType": "uint256",
              "name": "tokenId",
              "type": "uint256"
            },
            {
              "internalType": "string",
              "name": "name",
              "type": "string"
            },
            {
              "internalType": "address",
              "name": "creator",
              "type": "address"
            },
            {
              "internalType": "uint256",
              "name": "minStakeAmount",
              "type": "uint256"
            },
            {
              "internalType": "uint256",
              "name": "minWorkoutDuration",
              "type": "uint256"
            },
            {
              "internalType": "uint256",
              "name": "questDifficulty",
              "type": "uint256"
            },
            {
              "internalType": "uint256",
              "name": "maxQuestDuration",
              "type": "uint256"
            },
            {
              "internalType": "address[]",
              "name": "completedUsers",
              "type": "address[]"
            }
          ],
          "internalType": "struct QuestManager.Quest[]",
          "name": "",
          "type": "tuple[]"
        }
      ],
      "stateMutability": "view",
      "type": "function"
    },
    {
      "inputs": [
        {
          "internalType": "address",
          "name": "owner",
          "type": "address"
        },
        {
          "internalType": "address",
          "name": "operator",
          "type": "address"
        }
      ],
      "name": "isApprovedForAll",
      "outputs": [
        {
          "internalType": "bool",
          "name": "",
          "type": "bool"
        }
      ],
      "stateMutability": "view",
      "type": "function"
    },
    {
      "inputs": [],
      "name": "minPowTokensEasyDifficulty",
      "outputs": [
        {
          "internalType": "uint256",
          "name": "",
          "type": "uint256"
        }
      ],
      "stateMutability": "view",
      "type": "function"
    },
    {
      "inputs": [],
      "name": "minPowTokensHardDifficulty",
      "outputs": [
        {
          "internalType": "uint256",
          "name": "",
          "type": "uint256"
        }
      ],
      "stateMutability": "view",
      "type": "function"
    },
    {
      "inputs": [],
      "name": "minPowTokensMediumDifficulty",
      "outputs": [
        {
          "internalType": "uint256",
          "name": "",
          "type": "uint256"
        }
      ],
      "stateMutability": "view",
      "type": "function"
    },
    {
      "inputs": [],
      "name": "name",
      "outputs": [
        {
          "internalType": "string",
          "name": "",
          "type": "string"
        }
      ],
      "stateMutability": "view",
      "type": "function"
    },
    {
      "inputs": [],
      "name": "numOfQuestChallenges",
      "outputs": [
        {
          "internalType": "uint256",
          "name": "",
          "type": "uint256"
        }
      ],
      "stateMutability": "view",
      "type": "function"
    },
    {
      "inputs": [
        {
          "internalType": "address",
          "name": "",
          "type": "address"
        },
        {
          "internalType": "address",
          "name": "",
          "type": "address"
        },
        {
          "internalType": "uint256",
          "name": "",
          "type": "uint256"
        },
        {
          "internalType": "bytes",
          "name": "",
          "type": "bytes"
        }
      ],
      "name": "onERC721Received",
      "outputs": [
        {
          "internalType": "bytes4",
          "name": "",
          "type": "bytes4"
        }
      ],
      "stateMutability": "nonpayable",
      "type": "function"
    },
    {
      "inputs": [],
      "name": "owner",
      "outputs": [
        {
          "internalType": "address",
          "name": "",
          "type": "address"
        }
      ],
      "stateMutability": "view",
      "type": "function"
    },
    {
      "inputs": [
        {
          "internalType": "uint256",
          "name": "tokenId",
          "type": "uint256"
        }
      ],
      "name": "ownerOf",
      "outputs": [
        {
          "internalType": "address",
          "name": "",
          "type": "address"
        }
      ],
      "stateMutability": "view",
      "type": "function"
    },
    {
      "inputs": [
        {
          "internalType": "uint256",
          "name": "",
          "type": "uint256"
        }
      ],
      "name": "questChallenges",
      "outputs": [
        {
          "internalType": "uint256",
          "name": "challengeId",
          "type": "uint256"
        },
        {
          "internalType": "uint256",
          "name": "questTokenId",
          "type": "uint256"
        },
        {
          "internalType": "address",
          "name": "submitter",
          "type": "address"
        },
        {
          "internalType": "uint256",
          "name": "workoutDuration",
          "type": "uint256"
        },
        {
          "internalType": "uint256",
          "name": "stakeAmount",
          "type": "uint256"
        },
        {
          "internalType": "uint256",
          "name": "startTime",
          "type": "uint256"
        },
        {
          "internalType": "bool",
          "name": "completed",
          "type": "bool"
        }
      ],
      "stateMutability": "view",
      "type": "function"
    },
    {
      "inputs": [
        {
          "internalType": "uint256",
          "name": "",
          "type": "uint256"
        }
      ],
      "name": "quests",
      "outputs": [
        {
          "internalType": "uint256",
          "name": "tokenId",
          "type": "uint256"
        },
        {
          "internalType": "string",
          "name": "name",
          "type": "string"
        },
        {
          "internalType": "address",
          "name": "creator",
          "type": "address"
        },
        {
          "internalType": "uint256",
          "name": "minStakeAmount",
          "type": "uint256"
        },
        {
          "internalType": "uint256",
          "name": "minWorkoutDuration",
          "type": "uint256"
        },
        {
          "internalType": "uint256",
          "name": "questDifficulty",
          "type": "uint256"
        },
        {
          "internalType": "uint256",
          "name": "maxQuestDuration",
          "type": "uint256"
        }
      ],
      "stateMutability": "view",
      "type": "function"
    },
    {
      "inputs": [],
      "name": "renounceOwnership",
      "outputs": [],
      "stateMutability": "nonpayable",
      "type": "function"
    },
    {
      "inputs": [
        {
          "internalType": "address",
          "name": "from",
          "type": "address"
        },
        {
          "internalType": "address",
          "name": "to",
          "type": "address"
        },
        {
          "internalType": "uint256",
          "name": "tokenId",
          "type": "uint256"
        }
      ],
      "name": "safeTransferFrom",
      "outputs": [],
      "stateMutability": "nonpayable",
      "type": "function"
    },
    {
      "inputs": [
        {
          "internalType": "address",
          "name": "from",
          "type": "address"
        },
        {
          "internalType": "address",
          "name": "to",
          "type": "address"
        },
        {
          "internalType": "uint256",
          "name": "tokenId",
          "type": "uint256"
        },
        {
          "internalType": "bytes",
          "name": "data",
          "type": "bytes"
        }
      ],
      "name": "safeTransferFrom",
      "outputs": [],
      "stateMutability": "nonpayable",
      "type": "function"
    },
    {
      "inputs": [
        {
          "internalType": "address",
          "name": "operator",
          "type": "address"
        },
        {
          "internalType": "bool",
          "name": "approved",
          "type": "bool"
        }
      ],
      "name": "setApprovalForAll",
      "outputs": [],
      "stateMutability": "nonpayable",
      "type": "function"
    },
    {
      "inputs": [
        {
          "internalType": "uint256",
          "name": "_questTokenId",
          "type": "uint256"
        }
      ],
      "name": "startQuest",
      "outputs": [],
      "stateMutability": "payable",
      "type": "function"
    },
    {
      "inputs": [
        {
          "internalType": "uint256",
          "name": "_challengeId",
          "type": "uint256"
        },
        {
          "internalType": "uint256",
          "name": "_activityDuration",
          "type": "uint256"
        },
        {
          "internalType": "string",
          "name": "_metadataURI",
          "type": "string"
        }
      ],
      "name": "submitQuest",
      "outputs": [],
      "stateMutability": "payable",
      "type": "function"
    },
    {
      "inputs": [
        {
          "internalType": "bytes4",
          "name": "interfaceId",
          "type": "bytes4"
        }
      ],
      "name": "supportsInterface",
      "outputs": [
        {
          "internalType": "bool",
          "name": "",
          "type": "bool"
        }
      ],
      "stateMutability": "view",
      "type": "function"
    },
    {
      "inputs": [],
      "name": "symbol",
      "outputs": [
        {
          "internalType": "string",
          "name": "",
          "type": "string"
        }
      ],
      "stateMutability": "view",
      "type": "function"
    },
    {
      "inputs": [
        {
          "internalType": "uint256",
          "name": "index",
          "type": "uint256"
        }
      ],
      "name": "tokenByIndex",
      "outputs": [
        {
          "internalType": "uint256",
          "name": "",
          "type": "uint256"
        }
      ],
      "stateMutability": "view",
      "type": "function"
    },
    {
      "inputs": [
        {
          "internalType": "address",
          "name": "owner",
          "type": "address"
        },
        {
          "internalType": "uint256",
          "name": "index",
          "type": "uint256"
        }
      ],
      "name": "tokenOfOwnerByIndex",
      "outputs": [
        {
          "internalType": "uint256",
          "name": "",
          "type": "uint256"
        }
      ],
      "stateMutability": "view",
      "type": "function"
    },
    {
      "inputs": [
        {
          "internalType": "uint256",
          "name": "tokenId",
          "type": "uint256"
        }
      ],
      "name": "tokenURI",
      "outputs": [
        {
          "internalType": "string",
          "name": "",
          "type": "string"
        }
      ],
      "stateMutability": "view",
      "type": "function"
    },
    {
      "inputs": [],
      "name": "totalSupply",
      "outputs": [
        {
          "internalType": "uint256",
          "name": "",
          "type": "uint256"
        }
      ],
      "stateMutability": "view",
      "type": "function"
    },
    {
      "inputs": [
        {
          "internalType": "address",
          "name": "from",
          "type": "address"
        },
        {
          "internalType": "address",
          "name": "to",
          "type": "address"
        },
        {
          "internalType": "uint256",
          "name": "tokenId",
          "type": "uint256"
        }
      ],
      "name": "transferFrom",
      "outputs": [],
      "stateMutability": "nonpayable",
      "type": "function"
    },
    {
      "inputs": [
        {
          "internalType": "address",
          "name": "newOwner",
          "type": "address"
        }
      ],
      "name": "transferOwnership",
      "outputs": [],
      "stateMutability": "nonpayable",
      "type": "function"
    }
  ],
  "bytecode": {
    "object": "0x60806040526000600f556103e86010556107d06011553480156200002257600080fd5b506040518060400160405280601981526020017f50726f6f66206f6620576f726b6f75742050726f746f636f6c00000000000000815250604051806040016040528060048152602001630504f57560e41b8152508160009081620000879190620001da565b506001620000968282620001da565b505050620000b3620000ad620000df60201b60201c565b620000e3565b600c80546001600160a01b03191673359b573359ddaf99856f2f036894a5dad30d55c4179055620002a6565b3390565b600b80546001600160a01b038381166001600160a01b0319831681179093556040519116919082907f8be0079c531659141344cd1fd0a4f28419497f9722a3daafe3b4186f6b6457e090600090a35050565b634e487b7160e01b600052604160045260246000fd5b600181811c908216806200016057607f821691505b6020821081036200018157634e487b7160e01b600052602260045260246000fd5b50919050565b601f821115620001d557600081815260208120601f850160051c81016020861015620001b05750805b601f850160051c820191505b81811015620001d157828155600101620001bc565b5050505b505050565b81516001600160401b03811115620001f657620001f662000135565b6200020e816200020784546200014b565b8462000187565b602080601f8311600181146200024657600084156200022d5750858301515b600019600386901b1c1916600185901b178555620001d1565b600085815260208120601f198616915b82811015620002775788860151825594840194600190910190840162000256565b5085821015620002965787850151600019600388901b60f8161c191681555b5050505050600190811b01905550565b612fba80620002b66000396000f3fe6080604052600436106101e35760003560e01c8063715018a611610102578063c87b56dd11610095578063e085f98011610064578063e085f980146105e2578063e28835e314610615578063e985e9c51461062b578063f2fde38b1461067457600080fd5b8063c87b56dd1461056a578063d3f207461461058a578063d9150fe4146105aa578063dce6846f146105cc57600080fd5b806395d89b41116100d157806395d89b41146105025780639e56354414610517578063a22cb4651461052a578063b88d4fde1461054a57600080fd5b8063715018a614610403578063759e6a6f146104185780637adcad8b146104c25780638da5cb5b146104e457600080fd5b8063401ce8221161017a5780635b7292a2116101495780635b7292a21461039a5780636088aea2146103b05780636352211e146103c357806370a08231146103e357600080fd5b8063401ce8221461033157806342842e0e14610344578063493ad1a1146103645780634f6ccce71461037a57600080fd5b8063150b7a02116101b6578063150b7a021461029957806318160ddd146102d257806323b872dd146102f15780632f745c591461031157600080fd5b806301ffc9a7146101e857806306fdde031461021d578063081812fc1461023f578063095ea7b314610277575b600080fd5b3480156101f457600080fd5b506102086102033660046126c6565b610694565b60405190151581526020015b60405180910390f35b34801561022957600080fd5b506102326106a5565b6040516102149190612733565b34801561024b57600080fd5b5061025f61025a366004612746565b610737565b6040516001600160a01b039091168152602001610214565b34801561028357600080fd5b5061029761029236600461277b565b61075e565b005b3480156102a557600080fd5b506102b96102b4366004612831565b610878565b6040516001600160e01b03199091168152602001610214565b3480156102de57600080fd5b506008545b604051908152602001610214565b3480156102fd57600080fd5b5061029761030c3660046128ad565b610889565b34801561031d57600080fd5b506102e361032c36600461277b565b6108ba565b61029761033f366004612746565b610950565b34801561035057600080fd5b5061029761035f3660046128ad565b610beb565b34801561037057600080fd5b506102e360115481565b34801561038657600080fd5b506102e3610395366004612746565b610c06565b3480156103a657600080fd5b506102e360105481565b6102976103be366004612909565b610c99565b3480156103cf57600080fd5b5061025f6103de366004612746565b610fd2565b3480156103ef57600080fd5b506102e36103fe366004612959565b611032565b34801561040f57600080fd5b506102976110b8565b34801561042457600080fd5b5061047d610433366004612746565b6013602052600090815260409020805460018201546002830154600384015460048501546005860154600690960154949593946001600160a01b0390931693919290919060ff1687565b6040805197885260208801969096526001600160a01b03909416948601949094526060850191909152608084015260a0830191909152151560c082015260e001610214565b3480156104ce57600080fd5b506104d76110cc565b60405161021491906129b8565b3480156104f057600080fd5b50600b546001600160a01b031661025f565b34801561050e57600080fd5b50610232611331565b610297610525366004612746565b611340565b34801561053657600080fd5b50610297610545366004612a87565b6114c5565b34801561055657600080fd5b50610297610565366004612831565b6114d4565b34801561057657600080fd5b50610232610585366004612746565b61150c565b34801561059657600080fd5b506102976105a5366004612ac3565b611517565b3480156105b657600080fd5b506105bf6115a6565b6040516102149190612b20565b3480156105d857600080fd5b506102e3600e5481565b3480156105ee57600080fd5b506106026105fd366004612746565b6116ee565b6040516102149796959493929190612bad565b34801561062157600080fd5b506102e3600f5481565b34801561063757600080fd5b50610208610646366004612bf9565b6001600160a01b03918216600090815260056020908152604080832093909416825291909152205460ff1690565b34801561068057600080fd5b5061029761068f366004612959565b6117bc565b600061069f82611835565b92915050565b6060600080546106b490612c2c565b80601f01602080910402602001604051908101604052809291908181526020018280546106e090612c2c565b801561072d5780601f106107025761010080835404028352916020019161072d565b820191906000526020600020905b81548152906001019060200180831161071057829003601f168201915b5050505050905090565b60006107428261185a565b506000908152600460205260409020546001600160a01b031690565b600061076982610fd2565b9050806001600160a01b0316836001600160a01b0316036107db5760405162461bcd60e51b815260206004820152602160248201527f4552433732313a20617070726f76616c20746f2063757272656e74206f776e656044820152603960f91b60648201526084015b60405180910390fd5b336001600160a01b03821614806107f757506107f78133610646565b6108695760405162461bcd60e51b815260206004820152603d60248201527f4552433732313a20617070726f76652063616c6c6572206973206e6f7420746f60448201527f6b656e206f776e6572206f7220617070726f76656420666f7220616c6c00000060648201526084016107d2565b61087383836118b9565b505050565b630a85bd0160e11b5b949350505050565b6108933382611927565b6108af5760405162461bcd60e51b81526004016107d290612c60565b6108738383836119a5565b60006108c583611032565b82106109275760405162461bcd60e51b815260206004820152602b60248201527f455243373231456e756d657261626c653a206f776e657220696e646578206f7560448201526a74206f6620626f756e647360a81b60648201526084016107d2565b506001600160a01b03919091166000908152600660209081526040808320938352929052205490565b6000818152601360209081526040808320600181015484526012909252909120600682015460ff16156109c55760405162461bcd60e51b815260206004820152601860248201527f517565737420686173206265656e20636f6d706c65746564000000000000000060448201526064016107d2565b600681015460058301546109d99042612cc3565b1015610a275760405162461bcd60e51b815260206004820152601c60248201527f5175657374206368616c6c656e6765206e6f7420796574206f7665720000000060448201526064016107d2565b60028101546001600160a01b03163314610aa05760405162461bcd60e51b815260206004820152603460248201527f4f6e6c79207468652063726561746f72206f6620746865207175657374206361604482015273371031b0b636103a3434b990333ab731ba34b7b760611b60648201526084016107d2565b336001600160a01b03166108fc60028460040154610abe9190612cd6565b6040518115909202916000818181858888f19350505050158015610ae6573d6000803e3d6000fd5b5060078101546004830154600091610b0a91610b0490600290612cd6565b90611b16565b905060005b6007830154811015610b8157826007018181548110610b3057610b30612cf8565b60009182526020822001546040516001600160a01b039091169184156108fc02918591818181858888f19350505050158015610b70573d6000803e3d6000fd5b50610b7a81612d0e565b9050610b0f565b50600c54600284015460405163b6fd16e160e01b81526001600160a01b03918216600482015291169063b6fd16e190602401600060405180830381600087803b158015610bcd57600080fd5b505af1158015610be1573d6000803e3d6000fd5b5050505050505050565b610873838383604051806020016040528060008152506114d4565b6000610c1160085490565b8210610c745760405162461bcd60e51b815260206004820152602c60248201527f455243373231456e756d657261626c653a20676c6f62616c20696e646578206f60448201526b7574206f6620626f756e647360a01b60648201526084016107d2565b60088281548110610c8757610c87612cf8565b90600052602060002001549050919050565b600083815260136020908152604080832060018101548452601290925290912060028201546001600160a01b03163314610d2b5760405162461bcd60e51b815260206004820152602d60248201527f596f75206d7573742062652074686973207175657374206368616c6c656e676560448201526c13b99031b430b63632b733b2b960991b60648201526084016107d2565b60068101546005830154610d3f9042612cc3565b1115610d865760405162461bcd60e51b815260206004820152601660248201527554696d6520686173207061737365642c20736f72727960501b60448201526064016107d2565b600682015460ff1615610df25760405162461bcd60e51b815260206004820152602e60248201527f54686973207175657374206368616c6c656e676520686173206265656e20636f60448201526d6d706c657465642c20736f72727960901b60648201526084016107d2565b8060040154841015610e505760405162461bcd60e51b815260206004820152602160248201527f4163746976697479206475726174696f6e206e6f74206c6f6e6720656e6f75676044820152600d60fb1b60648201526084016107d2565b6003820184815560068301805460ff19166001908117909155600783018054918201815560009081526020812090910180546001600160a01b03191633179055600c5460048086015493546005860154604051637be3c4c760e01b8152928301959095526024820152604481019390935290916001600160a01b0390911690637be3c4c790606401602060405180830381865afa158015610ef5573d6000803e3d6000fd5b505050506040513d601f19601f82011682018060405250810190610f199190612d27565b9050610f29338360000154611b29565b8154610f359085611b43565b6004830154604051339180156108fc02916000818181858888f19350505050158015610f65573d6000803e3d6000fd5b50600c54604051630ff7b2c560e11b8152336004820152602481018390526001600160a01b0390911690631fef658a90604401600060405180830381600087803b158015610fb257600080fd5b505af1158015610fc6573d6000803e3d6000fd5b50505050505050505050565b6000818152600260205260408120546001600160a01b03168061069f5760405162461bcd60e51b8152602060048201526018602482015277115490cdcc8c4e881a5b9d985b1a59081d1bdad95b88125160421b60448201526064016107d2565b60006001600160a01b03821661109c5760405162461bcd60e51b815260206004820152602960248201527f4552433732313a2061646472657373207a65726f206973206e6f7420612076616044820152683634b21037bbb732b960b91b60648201526084016107d2565b506001600160a01b031660009081526003602052604090205490565b6110c0611c0e565b6110ca6000611c68565b565b606060006110d9600d5490565b67ffffffffffffffff8111156110f1576110f16127a5565b60405190808252806020026020018201604052801561117357816020015b611160604051806101000160405280600081526020016060815260200160006001600160a01b0316815260200160008152602001600081526020016000815260200160008152602001606081525090565b81526020019060019003908161110f5790505b50905060005b600d5481101561132b5760006012600083815260200190815260200160002090508060405180610100016040529081600082015481526020016001820180546111c190612c2c565b80601f01602080910402602001604051908101604052809291908181526020018280546111ed90612c2c565b801561123a5780601f1061120f5761010080835404028352916020019161123a565b820191906000526020600020905b81548152906001019060200180831161121d57829003601f168201915b505050505081526020016002820160009054906101000a90046001600160a01b03166001600160a01b03166001600160a01b0316815260200160038201548152602001600482015481526020016005820154815260200160068201548152602001600782018054806020026020016040519081016040528092919081815260200182805480156112f357602002820191906000526020600020905b81546001600160a01b031681526001909101906020018083116112d5575b50505050508152505083838151811061130e5761130e612cf8565b6020026020010181905250508061132490612d0e565b9050611179565b50919050565b6060600180546106b490612c2c565b600081815260126020526040902060038101543410156113ba5760405162461bcd60e51b815260206004820152602f60248201527f596f75206d757374207374616b6520656e6f75676820657468657220746f206260448201526e1959da5b881d1a1a5cc81c5d595cdd608a1b60648201526084016107d2565b600c54604051632999712960e21b81523360048201526000916001600160a01b03169063a665c4a490602401602060405180830381865afa158015611403573d6000803e3d6000fd5b505050506040513d601f19601f820116820180604052508101906114279190612d27565b905081600501546002036114495760105481101561144457600080fd5b611464565b81600501546003036114645760115481101561146457600080fd5b600e80546000818152601360205260408120918255600182018690556002820180546001600160a01b0319163317905534600483015542600583015560068201805460ff1916905582549192906114ba83612d0e565b919050555050505050565b6114d0338383611cba565b5050565b6114de3383611927565b6114fa5760405162461bcd60e51b81526004016107d290612c60565b61150684848484611d88565b50505050565b606061069f82611dbb565b81600114806115265750816002145b806115315750816003145b61153a57600080fd5b6000611545600d5490565b9050611555600d80546001019055565b6000818152601260205260409020818155600181016115748882612d8e565b506002810180546001600160a01b03191633179055600381019490945550600483019390935560058201556006015550565b60606000600e5467ffffffffffffffff8111156115c5576115c56127a5565b60405190808252806020026020018201604052801561164157816020015b61162e6040518060e00160405280600081526020016000815260200160006001600160a01b031681526020016000815260200160008152602001600081526020016000151581525090565b8152602001906001900390816115e35790505b50905060005b600e5481101561132b57600081815260136020908152604091829020825160e0810184528154815260018201549281019290925260028101546001600160a01b0316928201929092526003820154606082015260048201546080820152600582015460a0820152600682015460ff16151560c082015283518490849081106116d1576116d1612cf8565b602002602001018190525050806116e790612d0e565b9050611647565b6012602052600090815260409020805460018201805491929161171090612c2c565b80601f016020809104026020016040519081016040528092919081815260200182805461173c90612c2c565b80156117895780601f1061175e57610100808354040283529160200191611789565b820191906000526020600020905b81548152906001019060200180831161176c57829003601f168201915b505050600284015460038501546004860154600587015460069097015495966001600160a01b0390931695919450925087565b6117c4611c0e565b6001600160a01b0381166118295760405162461bcd60e51b815260206004820152602660248201527f4f776e61626c653a206e6577206f776e657220697320746865207a65726f206160448201526564647265737360d01b60648201526084016107d2565b61183281611c68565b50565b60006001600160e01b03198216632483248360e11b148061069f575061069f82611ec3565b6000818152600260205260409020546001600160a01b03166118325760405162461bcd60e51b8152602060048201526018602482015277115490cdcc8c4e881a5b9d985b1a59081d1bdad95b88125160421b60448201526064016107d2565b600081815260046020526040902080546001600160a01b0319166001600160a01b03841690811790915581906118ee82610fd2565b6001600160a01b03167f8c5be1e5ebec7d5bd14f71427d1e84f3dd0314c0f7b2291e5b200ac8c7c3b92560405160405180910390a45050565b60008061193383610fd2565b9050806001600160a01b0316846001600160a01b0316148061197a57506001600160a01b0380821660009081526005602090815260408083209388168352929052205460ff165b806108815750836001600160a01b031661199384610737565b6001600160a01b031614949350505050565b826001600160a01b03166119b882610fd2565b6001600160a01b0316146119de5760405162461bcd60e51b81526004016107d290612e4e565b6001600160a01b038216611a405760405162461bcd60e51b8152602060048201526024808201527f4552433732313a207472616e7366657220746f20746865207a65726f206164646044820152637265737360e01b60648201526084016107d2565b611a4d8383836001611ee8565b826001600160a01b0316611a6082610fd2565b6001600160a01b031614611a865760405162461bcd60e51b81526004016107d290612e4e565b600081815260046020908152604080832080546001600160a01b03199081169091556001600160a01b0387811680865260038552838620805460001901905590871680865283862080546001019055868652600290945282852080549092168417909155905184937fddf252ad1be2c89b69c2b068fc378daa952ba7f163c4a11628f55a4df523b3ef91a4505050565b6000611b228284612cd6565b9392505050565b6114d0828260405180602001604052806000815250611ef4565b6000828152600260205260409020546001600160a01b0316611bbe5760405162461bcd60e51b815260206004820152602e60248201527f45524337323155524953746f726167653a2055524920736574206f66206e6f6e60448201526d32bc34b9ba32b73a103a37b5b2b760911b60648201526084016107d2565b6000828152600a60205260409020611bd68282612d8e565b506040518281527ff8e1a15aba9398e019f0b49df1a4fde98ee17ae345cb5f6b5e2c27f5033e8ce79060200160405180910390a15050565b600b546001600160a01b031633146110ca5760405162461bcd60e51b815260206004820181905260248201527f4f776e61626c653a2063616c6c6572206973206e6f7420746865206f776e657260448201526064016107d2565b600b80546001600160a01b038381166001600160a01b0319831681179093556040519116919082907f8be0079c531659141344cd1fd0a4f28419497f9722a3daafe3b4186f6b6457e090600090a35050565b816001600160a01b0316836001600160a01b031603611d1b5760405162461bcd60e51b815260206004820152601960248201527f4552433732313a20617070726f766520746f2063616c6c65720000000000000060448201526064016107d2565b6001600160a01b03838116600081815260056020908152604080832094871680845294825291829020805460ff191686151590811790915591519182527f17307eab39ab6107e8899845ad3d59bd9653f200f220920489ca2b5937696c31910160405180910390a3505050565b611d938484846119a5565b611d9f84848484611f27565b6115065760405162461bcd60e51b81526004016107d290612e93565b6060611dc68261185a565b6000828152600a602052604081208054611ddf90612c2c565b80601f0160208091040260200160405190810160405280929190818152602001828054611e0b90612c2c565b8015611e585780601f10611e2d57610100808354040283529160200191611e58565b820191906000526020600020905b815481529060010190602001808311611e3b57829003601f168201915b505050505090506000611e7660408051602081019091526000815290565b90508051600003611e88575092915050565b815115611eba578082604051602001611ea2929190612ee5565b60405160208183030381529060405292505050919050565b61088184612025565b60006001600160e01b0319821663780e9d6360e01b148061069f575061069f82612098565b611506848484846120e8565b611efe838361221c565b611f0b6000848484611f27565b6108735760405162461bcd60e51b81526004016107d290612e93565b60006001600160a01b0384163b1561201d57604051630a85bd0160e11b81526001600160a01b0385169063150b7a0290611f6b903390899088908890600401612f14565b6020604051808303816000875af1925050508015611fa6575060408051601f3d908101601f19168201909252611fa391810190612f51565b60015b612003573d808015611fd4576040519150601f19603f3d011682016040523d82523d6000602084013e611fd9565b606091505b508051600003611ffb5760405162461bcd60e51b81526004016107d290612e93565b805181602001fd5b6001600160e01b031916630a85bd0160e11b149050610881565b506001610881565b60606120308261185a565b600061204760408051602081019091526000815290565b905060008151116120675760405180602001604052806000815250611b22565b80612071846123b5565b604051602001612082929190612ee5565b6040516020818303038152906040529392505050565b60006001600160e01b031982166380ac58cd60e01b14806120c957506001600160e01b03198216635b5e139f60e01b145b8061069f57506301ffc9a760e01b6001600160e01b031983161461069f565b60018111156121575760405162461bcd60e51b815260206004820152603560248201527f455243373231456e756d657261626c653a20636f6e7365637574697665207472604482015274185b9cd9995c9cc81b9bdd081cdd5c1c1bdc9d1959605a1b60648201526084016107d2565b816001600160a01b0385166121b3576121ae81600880546000838152600960205260408120829055600182018355919091527ff3f7a9fe364faab93b216da50a3214154f22a0a2b415b23a84c8169e8b636ee30155565b6121d6565b836001600160a01b0316856001600160a01b0316146121d6576121d68582612448565b6001600160a01b0384166121f2576121ed816124e5565b612215565b846001600160a01b0316846001600160a01b031614612215576122158482612594565b5050505050565b6001600160a01b0382166122725760405162461bcd60e51b815260206004820181905260248201527f4552433732313a206d696e7420746f20746865207a65726f206164647265737360448201526064016107d2565b6000818152600260205260409020546001600160a01b0316156122d75760405162461bcd60e51b815260206004820152601c60248201527f4552433732313a20746f6b656e20616c7265616479206d696e7465640000000060448201526064016107d2565b6122e5600083836001611ee8565b6000818152600260205260409020546001600160a01b03161561234a5760405162461bcd60e51b815260206004820152601c60248201527f4552433732313a20746f6b656e20616c7265616479206d696e7465640000000060448201526064016107d2565b6001600160a01b038216600081815260036020908152604080832080546001019055848352600290915280822080546001600160a01b0319168417905551839291907fddf252ad1be2c89b69c2b068fc378daa952ba7f163c4a11628f55a4df523b3ef908290a45050565b606060006123c2836125d8565b600101905060008167ffffffffffffffff8111156123e2576123e26127a5565b6040519080825280601f01601f19166020018201604052801561240c576020820181803683370190505b5090508181016020015b600019016f181899199a1a9b1b9c1cb0b131b232b360811b600a86061a8153600a850494508461241657509392505050565b6000600161245584611032565b61245f9190612cc3565b6000838152600760205260409020549091508082146124b2576001600160a01b03841660009081526006602090815260408083208584528252808320548484528184208190558352600790915290208190555b5060009182526007602090815260408084208490556001600160a01b039094168352600681528383209183525290812055565b6008546000906124f790600190612cc3565b6000838152600960205260408120546008805493945090928490811061251f5761251f612cf8565b90600052602060002001549050806008838154811061254057612540612cf8565b600091825260208083209091019290925582815260099091526040808220849055858252812055600880548061257857612578612f6e565b6001900381819060005260206000200160009055905550505050565b600061259f83611032565b6001600160a01b039093166000908152600660209081526040808320868452825280832085905593825260079052919091209190915550565b60008072184f03e93ff9f4daa797ed6e38ed64bf6a1f0160401b83106126175772184f03e93ff9f4daa797ed6e38ed64bf6a1f0160401b830492506040015b6d04ee2d6d415b85acef81000000008310612643576d04ee2d6d415b85acef8100000000830492506020015b662386f26fc10000831061266157662386f26fc10000830492506010015b6305f5e1008310612679576305f5e100830492506008015b612710831061268d57612710830492506004015b6064831061269f576064830492506002015b600a831061069f5760010192915050565b6001600160e01b03198116811461183257600080fd5b6000602082840312156126d857600080fd5b8135611b22816126b0565b60005b838110156126fe5781810151838201526020016126e6565b50506000910152565b6000815180845261271f8160208601602086016126e3565b601f01601f19169290920160200192915050565b602081526000611b226020830184612707565b60006020828403121561275857600080fd5b5035919050565b80356001600160a01b038116811461277657600080fd5b919050565b6000806040838503121561278e57600080fd5b6127978361275f565b946020939093013593505050565b634e487b7160e01b600052604160045260246000fd5b600067ffffffffffffffff808411156127d6576127d66127a5565b604051601f8501601f19908116603f011681019082821181831017156127fe576127fe6127a5565b8160405280935085815286868601111561281757600080fd5b858560208301376000602087830101525050509392505050565b6000806000806080858703121561284757600080fd5b6128508561275f565b935061285e6020860161275f565b925060408501359150606085013567ffffffffffffffff81111561288157600080fd5b8501601f8101871361289257600080fd5b6128a1878235602084016127bb565b91505092959194509250565b6000806000606084860312156128c257600080fd5b6128cb8461275f565b92506128d96020850161275f565b9150604084013590509250925092565b600082601f8301126128fa57600080fd5b611b22838335602085016127bb565b60008060006060848603121561291e57600080fd5b8335925060208401359150604084013567ffffffffffffffff81111561294357600080fd5b61294f868287016128e9565b9150509250925092565b60006020828403121561296b57600080fd5b611b228261275f565b600081518084526020808501945080840160005b838110156129ad5781516001600160a01b031687529582019590820190600101612988565b509495945050505050565b60006020808301818452808551808352604092508286019150828160051b87010184880160005b83811015612a7957603f1989840301855281516101008151855288820151818a870152612a0e82870182612707565b838a01516001600160a01b0316878b0152606080850151908801526080808501519088015260a0848101519088015260c0808501519088015260e093840151878203948801949094529150612a6590508183612974565b9689019694505050908601906001016129df565b509098975050505050505050565b60008060408385031215612a9a57600080fd5b612aa38361275f565b915060208301358015158114612ab857600080fd5b809150509250929050565b600080600080600060a08688031215612adb57600080fd5b853567ffffffffffffffff811115612af257600080fd5b612afe888289016128e9565b9860208801359850604088013597606081013597506080013595509350505050565b602080825282518282018190526000919060409081850190868401855b82811015612ba0578151805185528681015187860152858101516001600160a01b031686860152606080820151908601526080808201519086015260a0808201519086015260c09081015115159085015260e09093019290850190600101612b3d565b5091979650505050505050565b87815260e060208201526000612bc660e0830189612707565b6001600160a01b03979097166040830152506060810194909452608084019290925260a083015260c09091015292915050565b60008060408385031215612c0c57600080fd5b612c158361275f565b9150612c236020840161275f565b90509250929050565b600181811c90821680612c4057607f821691505b60208210810361132b57634e487b7160e01b600052602260045260246000fd5b6020808252602d908201527f4552433732313a2063616c6c6572206973206e6f7420746f6b656e206f776e6560408201526c1c881bdc88185c1c1c9bdd9959609a1b606082015260800190565b634e487b7160e01b600052601160045260246000fd5b8181038181111561069f5761069f612cad565b600082612cf357634e487b7160e01b600052601260045260246000fd5b500490565b634e487b7160e01b600052603260045260246000fd5b600060018201612d2057612d20612cad565b5060010190565b600060208284031215612d3957600080fd5b5051919050565b601f82111561087357600081815260208120601f850160051c81016020861015612d675750805b601f850160051c820191505b81811015612d8657828155600101612d73565b505050505050565b815167ffffffffffffffff811115612da857612da86127a5565b612dbc81612db68454612c2c565b84612d40565b602080601f831160018114612df15760008415612dd95750858301515b600019600386901b1c1916600185901b178555612d86565b600085815260208120601f198616915b82811015612e2057888601518255948401946001909101908401612e01565b5085821015612e3e5787850151600019600388901b60f8161c191681555b5050505050600190811b01905550565b60208082526025908201527f4552433732313a207472616e736665722066726f6d20696e636f72726563742060408201526437bbb732b960d91b606082015260800190565b60208082526032908201527f4552433732313a207472616e7366657220746f206e6f6e20455243373231526560408201527131b2b4bb32b91034b6b83632b6b2b73a32b960711b606082015260800190565b60008351612ef78184602088016126e3565b835190830190612f0b8183602088016126e3565b01949350505050565b6001600160a01b0385811682528416602082015260408101839052608060608201819052600090612f4790830184612707565b9695505050505050565b600060208284031215612f6357600080fd5b8151611b22816126b0565b634e487b7160e01b600052603160045260246000fdfea2646970667358221220ca6d55b806f556277e60a07ffb67369ffa139963eee40f6cd1ee62d018179c1464736f6c63430008110033",
    "linkReferences": {}
  },
  "methodIdentifiers": {
    "approve(address,uint256)": "095ea7b3",
    "balanceOf(address)": "70a08231",
    "createQuest(string,uint256,uint256,uint256,uint256)": "d3f20746",
    "failQuest(uint256)": "401ce822",
    "getApproved(uint256)": "081812fc",
    "getQuestChallenges()": "d9150fe4",
    "getQuests()": "7adcad8b",
    "isApprovedForAll(address,address)": "e985e9c5",
    "minPowTokensEasyDifficulty()": "e28835e3",
    "minPowTokensHardDifficulty()": "493ad1a1",
    "minPowTokensMediumDifficulty()": "5b7292a2",
    "name()": "06fdde03",
    "numOfQuestChallenges()": "dce6846f",
    "onERC721Received(address,address,uint256,bytes)": "150b7a02",
    "owner()": "8da5cb5b",
    "ownerOf(uint256)": "6352211e",
    "questChallenges(uint256)": "759e6a6f",
    "quests(uint256)": "e085f980",
    "renounceOwnership()": "715018a6",
    "safeTransferFrom(address,address,uint256)": "42842e0e",
    "safeTransferFrom(address,address,uint256,bytes)": "b88d4fde",
    "setApprovalForAll(address,bool)": "a22cb465",
    "startQuest(uint256)": "9e563544",
    "submitQuest(uint256,uint256,string)": "6088aea2",
    "supportsInterface(bytes4)": "01ffc9a7",
    "symbol()": "95d89b41",
    "tokenByIndex(uint256)": "4f6ccce7",
    "tokenOfOwnerByIndex(address,uint256)": "2f745c59",
    "tokenURI(uint256)": "c87b56dd",
    "totalSupply()": "18160ddd",
    "transferFrom(address,address,uint256)": "23b872dd",
    "transferOwnership(address)": "f2fde38b"
  },
  "id": 26
}