{
  "abi": [
    {
      "inputs": [],
      "stateMutability": "nonpayable",
      "type": "constructor"
    },
    {
      "anonymous": false,
      "inputs": [
        {
          "indexed": true,
          "internalType": "address",
          "name": "owner",
          "type": "address"
        },
        {
          "indexed": true,
          "internalType": "address",
          "name": "spender",
          "type": "address"
        },
        {
          "indexed": false,
          "internalType": "uint256",
          "name": "value",
          "type": "uint256"
        }
      ],
      "name": "Approval",
      "type": "event"
    },
    {
      "anonymous": false,
      "inputs": [
        {
          "indexed": true,
          "internalType": "address",
          "name": "previousOwner",
          "type": "address"
        },
        {
          "indexed": true,
          "internalType": "address",
          "name": "newOwner",
          "type": "address"
        }
      ],
      "name": "OwnershipTransferred",
      "type": "event"
    },
    {
      "anonymous": false,
      "inputs": [
        {
          "indexed": false,
          "internalType": "address",
          "name": "account",
          "type": "address"
        }
      ],
      "name": "Paused",
      "type": "event"
    },
    {
      "anonymous": false,
      "inputs": [
        {
          "indexed": true,
          "internalType": "address",
          "name": "from",
          "type": "address"
        },
        {
          "indexed": true,
          "internalType": "address",
          "name": "to",
          "type": "address"
        },
        {
          "indexed": false,
          "internalType": "uint256",
          "name": "value",
          "type": "uint256"
        }
      ],
      "name": "Transfer",
      "type": "event"
    },
    {
      "anonymous": false,
      "inputs": [
        {
          "indexed": false,
          "internalType": "address",
          "name": "account",
          "type": "address"
        }
      ],
      "name": "Unpaused",
      "type": "event"
    },
    {
      "inputs": [],
      "name": "IN_GAME_SUPPLY",
      "outputs": [
        {
          "internalType": "uint256",
          "name": "",
          "type": "uint256"
        }
      ],
      "stateMutability": "view",
      "type": "function"
    },
    {
      "inputs": [],
      "name": "MAX_SUPPLY",
      "outputs": [
        {
          "internalType": "uint256",
          "name": "",
          "type": "uint256"
        }
      ],
      "stateMutability": "view",
      "type": "function"
    },
    {
      "inputs": [],
      "name": "PREMINT_SUPPLY",
      "outputs": [
        {
          "internalType": "uint256",
          "name": "",
          "type": "uint256"
        }
      ],
      "stateMutability": "view",
      "type": "function"
    },
    {
      "inputs": [
        {
          "internalType": "address",
          "name": "owner",
          "type": "address"
        },
        {
          "internalType": "address",
          "name": "spender",
          "type": "address"
        }
      ],
      "name": "allowance",
      "outputs": [
        {
          "internalType": "uint256",
          "name": "",
          "type": "uint256"
        }
      ],
      "stateMutability": "view",
      "type": "function"
    },
    {
      "inputs": [
        {
          "internalType": "address",
          "name": "spender",
          "type": "address"
        },
        {
          "internalType": "uint256",
          "name": "amount",
          "type": "uint256"
        }
      ],
      "name": "approve",
      "outputs": [
        {
          "internalType": "bool",
          "name": "",
          "type": "bool"
        }
      ],
      "stateMutability": "nonpayable",
      "type": "function"
    },
    {
      "inputs": [
        {
          "internalType": "address",
          "name": "account",
          "type": "address"
        }
      ],
      "name": "balanceOf",
      "outputs": [
        {
          "internalType": "uint256",
          "name": "",
          "type": "uint256"
        }
      ],
      "stateMutability": "view",
      "type": "function"
    },
    {
      "inputs": [
        {
          "internalType": "uint256",
          "name": "amount",
          "type": "uint256"
        }
      ],
      "name": "burn",
      "outputs": [],
      "stateMutability": "nonpayable",
      "type": "function"
    },
    {
      "inputs": [
        {
          "internalType": "address",
          "name": "account",
          "type": "address"
        },
        {
          "internalType": "uint256",
          "name": "amount",
          "type": "uint256"
        }
      ],
      "name": "burnFrom",
      "outputs": [],
      "stateMutability": "nonpayable",
      "type": "function"
    },
    {
      "inputs": [
        {
          "internalType": "address",
          "name": "from",
          "type": "address"
        }
      ],
      "name": "burnFromFailure",
      "outputs": [],
      "stateMutability": "nonpayable",
      "type": "function"
    },
    {
      "inputs": [
        {
          "internalType": "uint256",
          "name": "_ethStaked",
          "type": "uint256"
        },
        {
          "internalType": "uint256",
          "name": "_questDuration",
          "type": "uint256"
        },
        {
          "internalType": "uint256",
          "name": "_difficulty",
          "type": "uint256"
        }
      ],
      "name": "computePowTokenReward",
      "outputs": [
        {
          "internalType": "uint256",
          "name": "",
          "type": "uint256"
        }
      ],
      "stateMutability": "view",
      "type": "function"
    },
    {
      "inputs": [],
      "name": "currentMaxRewardAmount",
      "outputs": [
        {
          "internalType": "uint256",
          "name": "",
          "type": "uint256"
        }
      ],
      "stateMutability": "view",
      "type": "function"
    },
    {
      "inputs": [],
      "name": "decimals",
      "outputs": [
        {
          "internalType": "uint8",
          "name": "",
          "type": "uint8"
        }
      ],
      "stateMutability": "view",
      "type": "function"
    },
    {
      "inputs": [
        {
          "internalType": "address",
          "name": "spender",
          "type": "address"
        },
        {
          "internalType": "uint256",
          "name": "subtractedValue",
          "type": "uint256"
        }
      ],
      "name": "decreaseAllowance",
      "outputs": [
        {
          "internalType": "bool",
          "name": "",
          "type": "bool"
        }
      ],
      "stateMutability": "nonpayable",
      "type": "function"
    },
    {
      "inputs": [
        {
          "internalType": "address",
          "name": "walletAddress",
          "type": "address"
        }
      ],
      "name": "getBalanceOfAddress",
      "outputs": [
        {
          "internalType": "uint256",
          "name": "",
          "type": "uint256"
        }
      ],
      "stateMutability": "view",
      "type": "function"
    },
    {
      "inputs": [],
      "name": "halvingSupply",
      "outputs": [
        {
          "internalType": "uint256",
          "name": "",
          "type": "uint256"
        }
      ],
      "stateMutability": "view",
      "type": "function"
    },
    {
      "inputs": [
        {
          "internalType": "address",
          "name": "spender",
          "type": "address"
        },
        {
          "internalType": "uint256",
          "name": "addedValue",
          "type": "uint256"
        }
      ],
      "name": "increaseAllowance",
      "outputs": [
        {
          "internalType": "bool",
          "name": "",
          "type": "bool"
        }
      ],
      "stateMutability": "nonpayable",
      "type": "function"
    },
    {
      "inputs": [
        {
          "internalType": "address",
          "name": "to",
          "type": "address"
        },
        {
          "internalType": "uint256",
          "name": "amount",
          "type": "uint256"
        }
      ],
      "name": "mintFromQuestCompletion",
      "outputs": [],
      "stateMutability": "nonpayable",
      "type": "function"
    },
    {
      "inputs": [],
      "name": "name",
      "outputs": [
        {
          "internalType": "string",
          "name": "",
          "type": "string"
        }
      ],
      "stateMutability": "view",
      "type": "function"
    },
    {
      "inputs": [],
      "name": "owner",
      "outputs": [
        {
          "internalType": "address",
          "name": "",
          "type": "address"
        }
      ],
      "stateMutability": "view",
      "type": "function"
    },
    {
      "inputs": [],
      "name": "pause",
      "outputs": [],
      "stateMutability": "nonpayable",
      "type": "function"
    },
    {
      "inputs": [],
      "name": "paused",
      "outputs": [
        {
          "internalType": "bool",
          "name": "",
          "type": "bool"
        }
      ],
      "stateMutability": "view",
      "type": "function"
    },
    {
      "inputs": [],
      "name": "renounceOwnership",
      "outputs": [],
      "stateMutability": "nonpayable",
      "type": "function"
    },
    {
      "inputs": [],
      "name": "symbol",
      "outputs": [
        {
          "internalType": "string",
          "name": "",
          "type": "string"
        }
      ],
      "stateMutability": "view",
      "type": "function"
    },
    {
      "inputs": [],
      "name": "totalSupply",
      "outputs": [
        {
          "internalType": "uint256",
          "name": "",
          "type": "uint256"
        }
      ],
      "stateMutability": "view",
      "type": "function"
    },
    {
      "inputs": [
        {
          "internalType": "address",
          "name": "to",
          "type": "address"
        },
        {
          "internalType": "uint256",
          "name": "amount",
          "type": "uint256"
        }
      ],
      "name": "transfer",
      "outputs": [
        {
          "internalType": "bool",
          "name": "",
          "type": "bool"
        }
      ],
      "stateMutability": "nonpayable",
      "type": "function"
    },
    {
      "inputs": [
        {
          "internalType": "address",
          "name": "from",
          "type": "address"
        },
        {
          "internalType": "address",
          "name": "to",
          "type": "address"
        },
        {
          "internalType": "uint256",
          "name": "amount",
          "type": "uint256"
        }
      ],
      "name": "transferFrom",
      "outputs": [
        {
          "internalType": "bool",
          "name": "",
          "type": "bool"
        }
      ],
      "stateMutability": "nonpayable",
      "type": "function"
    },
    {
      "inputs": [
        {
          "internalType": "address",
          "name": "newOwner",
          "type": "address"
        }
      ],
      "name": "transferOwnership",
      "outputs": [],
      "stateMutability": "nonpayable",
      "type": "function"
    },
    {
      "inputs": [],
      "name": "unpause",
      "outputs": [],
      "stateMutability": "nonpayable",
      "type": "function"
    }
  ],
  "bytecode": {
    "object": "0x60806040526002620000286a0ee3a5f48a68b5520000006a22bdd88fed9efc6a000000620002a1565b620000349190620002bd565b60065569010f0cf064dd592000006007553480156200005257600080fd5b506040518060400160405280600e81526020016d141c9bdbd993d995dbdc9adbdd5d60921b81525060405180604001604052806003815260200162504f5760e81b8152508160039081620000a7919062000384565b506004620000b6828262000384565b50506005805460ff1916905550620000ce33620000eb565b620000e5336a0ee3a5f48a68b55200000062000145565b62000466565b600580546001600160a01b03838116610100818102610100600160a81b031985161790945560405193909204169182907f8be0079c531659141344cd1fd0a4f28419497f9722a3daafe3b4186f6b6457e090600090a35050565b6001600160a01b038216620001a15760405162461bcd60e51b815260206004820152601f60248201527f45524332303a206d696e7420746f20746865207a65726f20616464726573730060448201526064015b60405180910390fd5b620001af600083836200021a565b8060026000828254620001c3919062000450565b90915550506001600160a01b038216600081815260208181526040808320805486019055518481527fddf252ad1be2c89b69c2b068fc378daa952ba7f163c4a11628f55a4df523b3ef910160405180910390a35050565b6200022462000241565b6200023c8383836200023c60201b6200079b1760201c565b505050565b60055460ff1615620002895760405162461bcd60e51b815260206004820152601060248201526f14185d5cd8589b194e881c185d5cd95960821b604482015260640162000198565b565b634e487b7160e01b600052601160045260246000fd5b81810381811115620002b757620002b76200028b565b92915050565b600082620002db57634e487b7160e01b600052601260045260246000fd5b500490565b634e487b7160e01b600052604160045260246000fd5b600181811c908216806200030b57607f821691505b6020821081036200032c57634e487b7160e01b600052602260045260246000fd5b50919050565b601f8211156200023c57600081815260208120601f850160051c810160208610156200035b5750805b601f850160051c820191505b818110156200037c5782815560010162000367565b505050505050565b81516001600160401b03811115620003a057620003a0620002e0565b620003b881620003b18454620002f6565b8462000332565b602080601f831160018114620003f05760008415620003d75750858301515b600019600386901b1c1916600185901b1785556200037c565b600085815260208120601f198616915b82811015620004215788860151825594840194600190910190840162000400565b5085821015620004405787850151600019600388901b60f8161c191681555b5050505050600190811b01905550565b80820180821115620002b757620002b76200028b565b6111fa80620004766000396000f3fe608060405234801561001057600080fd5b50600436106101c45760003560e01c806379cc6790116100f9578063a9059cbb11610097578063dd62ed3e11610071578063dd62ed3e1461038c578063e015ffa41461039f578063f1a23448146103a7578063f2fde38b146103b957600080fd5b8063a9059cbb1461035d578063add0c11a14610370578063b6fd16e11461037957600080fd5b80638da5cb5b116100d35780638da5cb5b1461030657806395d89b411461032f578063a457c2d714610337578063a665c4a41461034a57600080fd5b806379cc6790146102d85780637be3c4c7146102eb5780638456cb59146102fe57600080fd5b80633950935111610166578063555289651161014057806355528965146102935780635c975abb1461029c57806370a08231146102a7578063715018a6146102d057600080fd5b806339509351146102655780633f4ba83a1461027857806342966c681461028057600080fd5b80631fef658a116101a25780631fef658a1461021c57806323b872dd14610231578063313ce5671461024457806332cb6b0c1461025357600080fd5b806306fdde03146101c9578063095ea7b3146101e757806318160ddd1461020a575b600080fd5b6101d16103cc565b6040516101de9190610fb2565b60405180910390f35b6101fa6101f536600461101c565b61045e565b60405190151581526020016101de565b6002545b6040519081526020016101de565b61022f61022a36600461101c565b610478565b005b6101fa61023f366004611046565b6105a8565b604051601281526020016101de565b61020e6a22bdd88fed9efc6a00000081565b6101fa61027336600461101c565b6105ce565b61022f6105f0565b61022f61028e366004611082565b610602565b61020e60075481565b60055460ff166101fa565b61020e6102b536600461109b565b6001600160a01b031660009081526020819052604090205490565b61022f61060f565b61022f6102e636600461101c565b610621565b61020e6102f93660046110b6565b610636565b61022f610694565b60055461010090046001600160a01b03166040516001600160a01b0390911681526020016101de565b6101d16106a4565b6101fa61034536600461101c565b6106b3565b61020e61035836600461109b565b610739565b6101fa61036b36600461101c565b610757565b61020e60065481565b61022f61038736600461109b565b610765565b61020e61039a3660046110e2565b6107a0565b61020e6107cb565b61020e6a0ee3a5f48a68b55200000081565b61022f6103c736600461109b565b6107ee565b6060600380546103db90611115565b80601f016020809104026020016040519081016040528092919081815260200182805461040790611115565b80156104545780601f1061042957610100808354040283529160200191610454565b820191906000526020600020905b81548152906001019060200180831161043757829003601f168201915b5050505050905090565b60003361046c818585610864565b60019150505b92915050565b6007548111156104ec5760405162461bcd60e51b815260206004820152603460248201527f43616e6e6f74206d696e74206d6f7265207468616e2063757272656e742072656044820152733bb0b932103832b9103a3930b739b0b1ba34b7b760611b60648201526084015b60405180910390fd5b6a22bdd88fed9efc6a0000008161050260025490565b61050c9190611165565b11156105505760405162461bcd60e51b815260206004820152601360248201527213585e081cdd5c1c1b1e48195e18d959591959606a1b60448201526064016104e3565b61055a8282610988565b6006546a0ee3a5f48a68b55200000061057260025490565b61057c9190611178565b106105a45760075461058f906002610a53565b6007556006546105a0906002610a53565b6006555b5050565b6000336105b6858285610a5f565b6105c1858585610ad9565b60019150505b9392505050565b60003361046c8185856105e183836107a0565b6105eb9190611165565b610864565b6105f8610c88565b610600610ce8565b565b61060c3382610d3a565b50565b610617610c88565b6106006000610e78565b61062c823383610a5f565b6105a48282610d3a565b600080610664670de0b6b3a764000061065e606461065887818a818d86610a53565b90610ed2565b90610a53565b905060075481111561067a5750506007546105c7565b61068c81670de0b6b3a764000061118b565b9150506105c7565b61069c610c88565b610600610ede565b6060600480546103db90611115565b600033816106c182866107a0565b9050838110156107215760405162461bcd60e51b815260206004820152602560248201527f45524332303a2064656372656173656420616c6c6f77616e63652062656c6f77604482015264207a65726f60d81b60648201526084016104e3565b61072e8286868403610864565b506001949350505050565b6001600160a01b038116600090815260208190526040812054610472565b60003361046c818585610ad9565b6001600160a01b0381166000908152602081905260408120549061078f606461065e84600561118b565b905061079b8382610d3a565b505050565b6001600160a01b03918216600090815260016020908152604080832093909416825291909152205490565b6107eb6a0ee3a5f48a68b5520000006a22bdd88fed9efc6a000000611178565b81565b6107f6610c88565b6001600160a01b03811661085b5760405162461bcd60e51b815260206004820152602660248201527f4f776e61626c653a206e6577206f776e657220697320746865207a65726f206160448201526564647265737360d01b60648201526084016104e3565b61060c81610e78565b6001600160a01b0383166108c65760405162461bcd60e51b8152602060048201526024808201527f45524332303a20617070726f76652066726f6d20746865207a65726f206164646044820152637265737360e01b60648201526084016104e3565b6001600160a01b0382166109275760405162461bcd60e51b815260206004820152602260248201527f45524332303a20617070726f766520746f20746865207a65726f206164647265604482015261737360f01b60648201526084016104e3565b6001600160a01b0383811660008181526001602090815260408083209487168084529482529182902085905590518481527f8c5be1e5ebec7d5bd14f71427d1e84f3dd0314c0f7b2291e5b200ac8c7c3b925910160405180910390a3505050565b6001600160a01b0382166109de5760405162461bcd60e51b815260206004820152601f60248201527f45524332303a206d696e7420746f20746865207a65726f20616464726573730060448201526064016104e3565b6109ea60008383610f1b565b80600260008282546109fc9190611165565b90915550506001600160a01b038216600081815260208181526040808320805486019055518481527fddf252ad1be2c89b69c2b068fc378daa952ba7f163c4a11628f55a4df523b3ef910160405180910390a35050565b60006105c782846111a2565b6000610a6b84846107a0565b90506000198114610ad35781811015610ac65760405162461bcd60e51b815260206004820152601d60248201527f45524332303a20696e73756666696369656e7420616c6c6f77616e636500000060448201526064016104e3565b610ad38484848403610864565b50505050565b6001600160a01b038316610b3d5760405162461bcd60e51b815260206004820152602560248201527f45524332303a207472616e736665722066726f6d20746865207a65726f206164604482015264647265737360d81b60648201526084016104e3565b6001600160a01b038216610b9f5760405162461bcd60e51b815260206004820152602360248201527f45524332303a207472616e7366657220746f20746865207a65726f206164647260448201526265737360e81b60648201526084016104e3565b610baa838383610f1b565b6001600160a01b03831660009081526020819052604090205481811015610c225760405162461bcd60e51b815260206004820152602660248201527f45524332303a207472616e7366657220616d6f756e7420657863656564732062604482015265616c616e636560d01b60648201526084016104e3565b6001600160a01b03848116600081815260208181526040808320878703905593871680835291849020805487019055925185815290927fddf252ad1be2c89b69c2b068fc378daa952ba7f163c4a11628f55a4df523b3ef910160405180910390a3610ad3565b6005546001600160a01b036101009091041633146106005760405162461bcd60e51b815260206004820181905260248201527f4f776e61626c653a2063616c6c6572206973206e6f7420746865206f776e657260448201526064016104e3565b610cf0610f23565b6005805460ff191690557f5db9ee0a495bf2e6ff9c91a7834c1ba4fdd244a5e8aa4e537bd38aeae4b073aa335b6040516001600160a01b03909116815260200160405180910390a1565b6001600160a01b038216610d9a5760405162461bcd60e51b815260206004820152602160248201527f45524332303a206275726e2066726f6d20746865207a65726f206164647265736044820152607360f81b60648201526084016104e3565b610da682600083610f1b565b6001600160a01b03821660009081526020819052604090205481811015610e1a5760405162461bcd60e51b815260206004820152602260248201527f45524332303a206275726e20616d6f756e7420657863656564732062616c616e604482015261636560f01b60648201526084016104e3565b6001600160a01b0383166000818152602081815260408083208686039055600280548790039055518581529192917fddf252ad1be2c89b69c2b068fc378daa952ba7f163c4a11628f55a4df523b3ef910160405180910390a3505050565b600580546001600160a01b03838116610100818102610100600160a81b031985161790945560405193909204169182907f8be0079c531659141344cd1fd0a4f28419497f9722a3daafe3b4186f6b6457e090600090a35050565b60006105c7828461118b565b610ee6610f6c565b6005805460ff191660011790557f62e78cea01bee320cd4e420270b5ea74000d11b0c9f74754ebdbfc544b05a258610d1d3390565b61079b610f6c565b60055460ff166106005760405162461bcd60e51b815260206004820152601460248201527314185d5cd8589b194e881b9bdd081c185d5cd95960621b60448201526064016104e3565b60055460ff16156106005760405162461bcd60e51b815260206004820152601060248201526f14185d5cd8589b194e881c185d5cd95960821b60448201526064016104e3565b600060208083528351808285015260005b81811015610fdf57858101830151858201604001528201610fc3565b506000604082860101526040601f19601f8301168501019250505092915050565b80356001600160a01b038116811461101757600080fd5b919050565b6000806040838503121561102f57600080fd5b61103883611000565b946020939093013593505050565b60008060006060848603121561105b57600080fd5b61106484611000565b925061107260208501611000565b9150604084013590509250925092565b60006020828403121561109457600080fd5b5035919050565b6000602082840312156110ad57600080fd5b6105c782611000565b6000806000606084860312156110cb57600080fd5b505081359360208301359350604090920135919050565b600080604083850312156110f557600080fd5b6110fe83611000565b915061110c60208401611000565b90509250929050565b600181811c9082168061112957607f821691505b60208210810361114957634e487b7160e01b600052602260045260246000fd5b50919050565b634e487b7160e01b600052601160045260246000fd5b808201808211156104725761047261114f565b818103818111156104725761047261114f565b80820281158282048414176104725761047261114f565b6000826111bf57634e487b7160e01b600052601260045260246000fd5b50049056fea26469706673582212202255235e2a441e4a8e12fe212851462c2f0e13a460c5c1c7cd11b3f98198423964736f6c63430008110033",
    "linkReferences": {}
  },
  "methodIdentifiers": {
    "IN_GAME_SUPPLY()": "e015ffa4",
    "MAX_SUPPLY()": "32cb6b0c",
    "PREMINT_SUPPLY()": "f1a23448",
    "allowance(address,address)": "dd62ed3e",
    "approve(address,uint256)": "095ea7b3",
    "balanceOf(address)": "70a08231",
    "burn(uint256)": "42966c68",
    "burnFrom(address,uint256)": "79cc6790",
    "burnFromFailure(address)": "b6fd16e1",
    "computePowTokenReward(uint256,uint256,uint256)": "7be3c4c7",
    "currentMaxRewardAmount()": "55528965",
    "decimals()": "313ce567",
    "decreaseAllowance(address,uint256)": "a457c2d7",
    "getBalanceOfAddress(address)": "a665c4a4",
    "halvingSupply()": "add0c11a",
    "increaseAllowance(address,uint256)": "39509351",
    "mintFromQuestCompletion(address,uint256)": "1fef658a",
    "name()": "06fdde03",
    "owner()": "8da5cb5b",
    "pause()": "8456cb59",
    "paused()": "5c975abb",
    "renounceOwnership()": "715018a6",
    "symbol()": "95d89b41",
    "totalSupply()": "18160ddd",
    "transfer(address,uint256)": "a9059cbb",
    "transferFrom(address,address,uint256)": "23b872dd",
    "transferOwnership(address)": "f2fde38b",
    "unpause()": "3f4ba83a"
  },
  "id": 25
}