{
  "abi": [
    {
      "inputs": [
        {
          "internalType": "address",
          "name": "",
          "type": "address"
        }
      ],
      "name": "accounts",
      "outputs": [
        {
          "internalType": "address",
          "name": "walletAddress",
          "type": "address"
        },
        {
          "internalType": "bool",
          "name": "isRegistered",
          "type": "bool"
        },
        {
          "internalType": "uint256",
          "name": "stravaId",
          "type": "uint256"
        }
      ],
      "stateMutability": "view",
      "type": "function"
    },
    {
      "inputs": [
        {
          "internalType": "address",
          "name": "_walletAddress",
          "type": "address"
        }
      ],
      "name": "checkIfAccountIsRegistered",
      "outputs": [
        {
          "internalType": "bool",
          "name": "",
          "type": "bool"
        }
      ],
      "stateMutability": "view",
      "type": "function"
    },
    {
      "inputs": [
        {
          "internalType": "address",
          "name": "_walletAddress",
          "type": "address"
        }
      ],
      "name": "getRegisteredAccountDetails",
      "outputs": [
        {
          "internalType": "address",
          "name": "",
          "type": "address"
        },
        {
          "internalType": "bool",
          "name": "",
          "type": "bool"
        },
        {
          "internalType": "uint256",
          "name": "",
          "type": "uint256"
        }
      ],
      "stateMutability": "view",
      "type": "function"
    },
    {
      "inputs": [
        {
          "internalType": "address",
          "name": "_walletAddress",
          "type": "address"
        },
        {
          "internalType": "uint256",
          "name": "_stravaId",
          "type": "uint256"
        }
      ],
      "name": "registerAccount",
      "outputs": [],
      "stateMutability": "nonpayable",
      "type": "function"
    }
  ],
  "bytecode": {
    "object": "0x608060405234801561001057600080fd5b50610315806100206000396000f3fe608060405234801561001057600080fd5b506004361061004c5760003560e01c806358cbe353146100515780635e5c06e214610066578063709e036b146100cd578063f4e32a451461010f575b600080fd5b61006461005f366004610293565b610152565b005b6100a36100743660046102bd565b600060208190529081526040902080546001909101546001600160a01b03821691600160a01b900460ff169083565b604080516001600160a01b0390941684529115156020840152908201526060015b60405180910390f35b6100a36100db3660046102bd565b6001600160a01b039081166000908152602081905260409020805460019091015491811692600160a01b90910460ff169190565b61014261011d3660046102bd565b6001600160a01b0316600090815260208190526040902054600160a01b900460ff1690565b60405190151581526020016100c4565b6001600160a01b03821660008181526020819052604090209033146101ee5760405162461bcd60e51b815260206004820152604160248201527f596f75206d75737420626520746865206f776e6572206f66207468652077616c60448201527f6c6574206164647265737320746f2063616c6c20746869732066756e6374696f6064820152603760f91b608482015260a4015b60405180910390fd5b8054600160a01b900460ff16156102515760405162461bcd60e51b815260206004820152602160248201527f57616c6c6574206164647265737320616c7265616479207265676973746572656044820152601960fa1b60648201526084016101e5565b805460ff60a01b1933166001600160a81b031990911617600160a01b1781556001015550565b80356001600160a01b038116811461028e57600080fd5b919050565b600080604083850312156102a657600080fd5b6102af83610277565b946020939093013593505050565b6000602082840312156102cf57600080fd5b6102d882610277565b939250505056fea26469706673582212200b3dde2b73e6c47c5d5532b6a7869a738e78f74b3d4b646dfdeb672e574324b164736f6c63430008110033",
    "linkReferences": {}
  },
  "methodIdentifiers": {
    "accounts(address)": "5e5c06e2",
    "checkIfAccountIsRegistered(address)": "f4e32a45",
    "getRegisteredAccountDetails(address)": "709e036b",
    "registerAccount(address,uint256)": "58cbe353"
  },
  "id": 0
}